{
  "contractName": "ReceiptStore",
  "abi": [
    {
      "inputs": [],
      "payable": false,
      "stateMutability": "nonpayable",
      "type": "constructor"
    },
    {
      "constant": true,
      "inputs": [],
      "name": "admin",
      "outputs": [
        {
          "internalType": "address",
          "name": "",
          "type": "address"
        }
      ],
      "payable": false,
      "stateMutability": "view",
      "type": "function"
    },
    {
      "constant": true,
      "inputs": [
        {
          "internalType": "address",
          "name": "",
          "type": "address"
        }
      ],
      "name": "issuers",
      "outputs": [
        {
          "internalType": "bool",
          "name": "",
          "type": "bool"
        }
      ],
      "payable": false,
      "stateMutability": "view",
      "type": "function"
    },
    {
      "constant": true,
      "inputs": [
        {
          "internalType": "string",
          "name": "",
          "type": "string"
        }
      ],
      "name": "receipts",
      "outputs": [
        {
          "internalType": "bool",
          "name": "exists",
          "type": "bool"
        },
        {
          "internalType": "bool",
          "name": "isReturned",
          "type": "bool"
        },
        {
          "internalType": "bool",
          "name": "isUsed",
          "type": "bool"
        }
      ],
      "payable": false,
      "stateMutability": "view",
      "type": "function"
    },
    {
      "constant": false,
      "inputs": [
        {
          "internalType": "address",
          "name": "issuer",
          "type": "address"
        }
      ],
      "name": "addIssuer",
      "outputs": [],
      "payable": false,
      "stateMutability": "nonpayable",
      "type": "function"
    },
    {
      "constant": false,
      "inputs": [
        {
          "internalType": "address",
          "name": "issuer",
          "type": "address"
        }
      ],
      "name": "removeIssuer",
      "outputs": [],
      "payable": false,
      "stateMutability": "nonpayable",
      "type": "function"
    },
    {
      "constant": false,
      "inputs": [
        {
          "internalType": "string",
          "name": "receipt",
          "type": "string"
        }
      ],
      "name": "createReceipt",
      "outputs": [],
      "payable": false,
      "stateMutability": "nonpayable",
      "type": "function"
    },
    {
      "constant": false,
      "inputs": [
        {
          "internalType": "string",
          "name": "receipt",
          "type": "string"
        }
      ],
      "name": "createReceiptTest",
      "outputs": [],
      "payable": false,
      "stateMutability": "nonpayable",
      "type": "function"
    },
    {
      "constant": false,
      "inputs": [
        {
          "internalType": "string",
          "name": "receipt",
          "type": "string"
        },
        {
          "internalType": "bool",
          "name": "returned",
          "type": "bool"
        }
      ],
      "name": "changeReturned",
      "outputs": [],
      "payable": false,
      "stateMutability": "nonpayable",
      "type": "function"
    },
    {
      "constant": false,
      "inputs": [
        {
          "internalType": "string",
          "name": "receipt",
          "type": "string"
        },
        {
          "internalType": "bool",
          "name": "used",
          "type": "bool"
        }
      ],
      "name": "changeUsed",
      "outputs": [],
      "payable": false,
      "stateMutability": "nonpayable",
      "type": "function"
    },
    {
      "constant": false,
      "inputs": [
        {
          "internalType": "string",
          "name": "receipt",
          "type": "string"
        }
      ],
      "name": "getDetails",
      "outputs": [
        {
          "internalType": "bool",
          "name": "exists",
          "type": "bool"
        },
        {
          "internalType": "bool",
          "name": "isReturned",
          "type": "bool"
        },
        {
          "internalType": "bool",
          "name": "isUsed",
          "type": "bool"
        }
      ],
      "payable": false,
      "stateMutability": "nonpayable",
      "type": "function"
    }
  ],
  "bytecode": "0x608060405234801561001057600080fd5b50336000806101000a81548173ffffffffffffffffffffffffffffffffffffffff021916908373ffffffffffffffffffffffffffffffffffffffff16021790555061118d806100606000396000f3fe608060405234801561001057600080fd5b506004361061009e5760003560e01c806380721bb91161006657806380721bb91461032b5780638648555e146104145780639bb67e1d146104db578063dbdd850314610596578063f851a4401461065d5761009e565b80631328fd8f146100a35780631af83c5c1461018c57806320694db01461024757806338a7543e1461028b57806347bc7093146102e7575b600080fd5b61015c600480360360208110156100b957600080fd5b81019080803590602001906401000000008111156100d657600080fd5b8201836020820111156100e857600080fd5b8035906020019184600183028401116401000000008311171561010a57600080fd5b91908080601f016020809104026020016040519081016040528093929190818152602001838380828437600081840152601f19601f8201169050808301925050505050505091929192905050506106a7565b60405180841515151581526020018315151515815260200182151515158152602001935050505060405180910390f35b610245600480360360208110156101a257600080fd5b81019080803590602001906401000000008111156101bf57600080fd5b8201836020820111156101d157600080fd5b803590602001918460018302840111640100000000831117156101f357600080fd5b91908080601f016020809104026020016040519081016040528093929190818152602001838380828437600081840152601f19601f820116905080830192505050505050509192919290505050610827565b005b6102896004803603602081101561025d57600080fd5b81019080803573ffffffffffffffffffffffffffffffffffffffff169060200190929190505050610a42565b005b6102cd600480360360208110156102a157600080fd5b81019080803573ffffffffffffffffffffffffffffffffffffffff169060200190929190505050610b55565b604051808215151515815260200191505060405180910390f35b610329600480360360208110156102fd57600080fd5b81019080803573ffffffffffffffffffffffffffffffffffffffff169060200190929190505050610b75565b005b6103e46004803603602081101561034157600080fd5b810190808035906020019064010000000081111561035e57600080fd5b82018360208201111561037057600080fd5b8035906020019184600183028401116401000000008311171561039257600080fd5b91908080601f016020809104026020016040519081016040528093929190818152602001838380828437600081840152601f19601f820116905080830192505050505050509192919290505050610c88565b60405180841515151581526020018315151515815260200182151515158152602001935050505060405180910390f35b6104d96004803603604081101561042a57600080fd5b810190808035906020019064010000000081111561044757600080fd5b82018360208201111561045957600080fd5b8035906020019184600183028401116401000000008311171561047b57600080fd5b91908080601f016020809104026020016040519081016040528093929190818152602001838380828437600081840152601f19601f820116905080830192505050505050509192919290803515159060200190929190505050610cef565b005b610594600480360360208110156104f157600080fd5b810190808035906020019064010000000081111561050e57600080fd5b82018360208201111561052057600080fd5b8035906020019184600183028401116401000000008311171561054257600080fd5b91908080601f016020809104026020016040519081016040528093929190818152602001838380828437600081840152601f19601f820116905080830192505050505050509192919290505050610dd2565b005b61065b600480360360408110156105ac57600080fd5b81019080803590602001906401000000008111156105c957600080fd5b8201836020820111156105db57600080fd5b803590602001918460018302840111640100000000831117156105fd57600080fd5b91908080601f016020809104026020016040519081016040528093929190818152602001838380828437600081840152601f19601f82011690508083019250505050505050919291929080351515906020019092919050505061104c565b005b610665611133565b604051808273ffffffffffffffffffffffffffffffffffffffff1673ffffffffffffffffffffffffffffffffffffffff16815260200191505060405180910390f35b60008060006001846040518082805190602001908083835b602083106106e257805182526020820191506020810190506020830392506106bf565b6001836020036101000a038019825116818451168082178552505050505050905001915050908152602001604051809103902060000160009054906101000a900460ff166001856040518082805190602001908083835b6020831061075c5780518252602082019150602081019050602083039250610739565b6001836020036101000a038019825116818451168082178552505050505050905001915050908152602001604051809103902060000160019054906101000a900460ff166001866040518082805190602001908083835b602083106107d657805182526020820191506020810190506020830392506107b3565b6001836020036101000a038019825116818451168082178552505050505050905001915050908152602001604051809103902060000160029054906101000a900460ff169250925092509193909250565b600015156001826040518082805190602001908083835b60208310610861578051825260208201915060208101905060208303925061083e565b6001836020036101000a038019825116818451168082178552505050505050905001915050908152602001604051809103902060000160009054906101000a900460ff161515146108b157600080fd5b600180826040518082805190602001908083835b602083106108e857805182526020820191506020810190506020830392506108c5565b6001836020036101000a038019825116818451168082178552505050505050905001915050908152602001604051809103902060000160006101000a81548160ff02191690831515021790555060006001826040518082805190602001908083835b6020831061096d578051825260208201915060208101905060208303925061094a565b6001836020036101000a038019825116818451168082178552505050505050905001915050908152602001604051809103902060000160016101000a81548160ff02191690831515021790555060006001826040518082805190602001908083835b602083106109f257805182526020820191506020810190506020830392506109cf565b6001836020036101000a038019825116818451168082178552505050505050905001915050908152602001604051809103902060000160026101000a81548160ff02191690831515021790555050565b336000809054906101000a900473ffffffffffffffffffffffffffffffffffffffff1673ffffffffffffffffffffffffffffffffffffffff168173ffffffffffffffffffffffffffffffffffffffff1614610a9c57600080fd5b60001515600260008473ffffffffffffffffffffffffffffffffffffffff1673ffffffffffffffffffffffffffffffffffffffff16815260200190815260200160002060009054906101000a900460ff16151514610af957600080fd5b6001600260008473ffffffffffffffffffffffffffffffffffffffff1673ffffffffffffffffffffffffffffffffffffffff16815260200190815260200160002060006101000a81548160ff0219169083151502179055505050565b60026020528060005260406000206000915054906101000a900460ff1681565b336000809054906101000a900473ffffffffffffffffffffffffffffffffffffffff1673ffffffffffffffffffffffffffffffffffffffff168173ffffffffffffffffffffffffffffffffffffffff1614610bcf57600080fd5b60011515600260008473ffffffffffffffffffffffffffffffffffffffff1673ffffffffffffffffffffffffffffffffffffffff16815260200190815260200160002060009054906101000a900460ff16151514610c2c57600080fd5b6000600260008473ffffffffffffffffffffffffffffffffffffffff1673ffffffffffffffffffffffffffffffffffffffff16815260200190815260200160002060006101000a81548160ff0219169083151502179055505050565b6001818051602081018201805184825260208301602085012081835280955050505050506000915090508060000160009054906101000a900460ff16908060000160019054906101000a900460ff16908060000160029054906101000a900460ff16905083565b336000809054906101000a900473ffffffffffffffffffffffffffffffffffffffff1673ffffffffffffffffffffffffffffffffffffffff168173ffffffffffffffffffffffffffffffffffffffff1614610d4957600080fd5b816001846040518082805190602001908083835b60208310610d805780518252602082019150602081019050602083039250610d5d565b6001836020036101000a038019825116818451168082178552505050505050905001915050908152602001604051809103902060000160026101000a81548160ff021916908315150217905550505050565b3360011515600260008373ffffffffffffffffffffffffffffffffffffffff1673ffffffffffffffffffffffffffffffffffffffff16815260200190815260200160002060009054906101000a900460ff16151514610e3057600080fd5b600015156001836040518082805190602001908083835b60208310610e6a5780518252602082019150602081019050602083039250610e47565b6001836020036101000a038019825116818451168082178552505050505050905001915050908152602001604051809103902060000160009054906101000a900460ff16151514610eba57600080fd5b600180836040518082805190602001908083835b60208310610ef15780518252602082019150602081019050602083039250610ece565b6001836020036101000a038019825116818451168082178552505050505050905001915050908152602001604051809103902060000160006101000a81548160ff02191690831515021790555060006001836040518082805190602001908083835b60208310610f765780518252602082019150602081019050602083039250610f53565b6001836020036101000a038019825116818451168082178552505050505050905001915050908152602001604051809103902060000160016101000a81548160ff02191690831515021790555060006001836040518082805190602001908083835b60208310610ffb5780518252602082019150602081019050602083039250610fd8565b6001836020036101000a038019825116818451168082178552505050505050905001915050908152602001604051809103902060000160026101000a81548160ff0219169083151502179055505050565b3360011515600260008373ffffffffffffffffffffffffffffffffffffffff1673ffffffffffffffffffffffffffffffffffffffff16815260200190815260200160002060009054906101000a900460ff161515146110aa57600080fd5b816001846040518082805190602001908083835b602083106110e157805182526020820191506020810190506020830392506110be565b6001836020036101000a038019825116818451168082178552505050505050905001915050908152602001604051809103902060000160016101000a81548160ff021916908315150217905550505050565b6000809054906101000a900473ffffffffffffffffffffffffffffffffffffffff168156fea265627a7a723158202021daf59a127638caf7a9e7aeb4dbd59acc982fc3dc766b6772a43aeac663be64736f6c63430005100032",
  "source": "pragma solidity >= 0.5.0 < 0.7.0;\ncontract ReceiptStore {\n    // Concur address\n    address public admin;\n    // Details stored attached to a receipt\n    struct Details {\n        bool exists;\n        bool isReturned;\n        bool isUsed;\n    }\n    // Map of all the receipts\n    mapping (string => Details) public receipts;\n    // Map of all the issuers allowed to create receipts\n    mapping (address => bool) public issuers;\n    // Set concur as the admin\n    constructor() public {\n        admin = msg.sender;\n    }\n    // Limits access to registered issuers\n    modifier onlyByIssuer(address _account)\n    {\n        require(issuers[_account] == true);\n        _;\n    }\n    // Limits access to Concur\n    modifier onlyByConcur(address _account)\n    {\n        require(_account == admin);\n        _;\n    }\n    // Allows Concur admin to add a new issuer\n    function addIssuer(address issuer) public \n        onlyByConcur(msg.sender)\n    {\n        require(issuers[issuer] == false);\n        issuers[issuer] = true;\n    }\n    // Allows Concur admin to add a remove issuer\n    function removeIssuer(address issuer) public \n        onlyByConcur(msg.sender)\n    {\n        require(issuers[issuer] == true);\n        issuers[issuer] = false;\n    }\n    function createReceipt(string memory receipt) public\n        onlyByIssuer(msg.sender)\n    {\n        require(receipts[receipt].exists == false);\n        receipts[receipt].exists = true;\n        receipts[receipt].isReturned = false;\n        receipts[receipt].isUsed = false;\n    }\n    // Test function to create a receipt. Doesn't require authorization\n    function createReceiptTest(string memory receipt) public {\n        require(receipts[receipt].exists == false);\n        receipts[receipt].exists = true;\n        receipts[receipt].isReturned = false;\n        receipts[receipt].isUsed = false;\n    }\n    function changeReturned(string memory receipt, bool returned) public\n        onlyByIssuer(msg.sender)\n    {\n        receipts[receipt].isReturned = returned;\n    }\n    // Function to change a receipt used status. Only concur can use.\n    function changeUsed(string memory receipt, bool used) public\n        onlyByConcur(msg.sender)\n    {\n        receipts[receipt].isUsed = used;\n    }\n    // Function to get the details of a receipt\n    function getDetails(string memory receipt) public\n        returns (bool exists, bool isReturned, bool isUsed)\n    {\n         return (receipts[receipt].exists, receipts[receipt].isReturned, receipts[receipt].isUsed);\n    }\n}\n",
  "sourcePath": "/Users/i841712/github.com/michaelkunzmann-sap/concur_hackday_2020/contracts/ReceiptStore.sol",
  "compiler": {
    "name": "solc",
    "version": "0.5.16+commit.9c3226ce.Emscripten.clang"
  },
  "schemaVersion": "3.0.23",
  "updatedAt": "2020-02-11T22:47:08.824Z",
  "networkType": "ethereum",
  "devdoc": {
    "methods": {}
  },
  "userdoc": {
    "methods": {}
  }
}